:0409DC007F017E0019
:0B09E000EF1FAC0670011E4C70F622E9
:10000600E4F509F50AF50BF50CF50DF50EF50FF50A
:1000160010F511F514E51460030201A3E51370FC55
:10002600E51712086300D208006F0C005016008E08
:100036001800F41C013742019E4301794A015852C7
:1000460001165A00B05E0000001B7F30120A01AE96
:1000560009AF0A7C007D0A1207B88E098F0A050AC5
:10006600E50A706505090201987F31120A01AE0999
:10007600AF0A7C007D0A1207B88E098F0A050AE5C9
:100086000A700205090201987F32120A01AE09AF11
:100096000A7C007D0A1207B88E098F0A7402250AA7
:1000A600F50AE43509F5090201987F33120A01AE13
:1000B60009AF0A7C007D0A1207B88E098F0A7403FD
:1000C600250AF50AE43509F5090201987F34120A72
:1000D60001AE09AF0A7C007D0A1207B88E098F0AA5
:1000E6007404250AF50AE43509F5090201987F35F5
:1000F600120A01AE09AF0A7C007D0A1207B88E0902
:100106008F0A7405250AF50AE43509F509020198EE
:100116007F36120A01AE09AF0A7C007D0A1207B8C3
:100126008E098F0A7406250AF50AE43509F5098051
:10013600617F37120A01AE09AF0A7C007D0A1207F9
:10014600B88E098F0A7407250AF50AE43509F509F8
:1001560080407F38120A01AE09AF0A7C007D0A1280
:1001660007B88E098F0A7408250AF50AE43509F5D9
:1001760009801F7F39120A01AE09AF0A7C007D0A89
:100186001207B88E098F0A7409250AF50AE435099B
:10019600F50975130102001B051402001B7F647E1E
:1001A600001209E0E4F514751716E5147043E5131B
:1001B60070FCE51724F3602A24F8601224FC60180A
:1001C600241070E67F2B120A01E4F511801C7F2DA6
:1001D600120A0175110180127F2A120A0175110295
:1001E60080087F2F120A017511037513010514800B
:1001F600B97FE87E031209E0E4F514751745E514A6
:100206006003020384E51370FCE51712086302B36A
:100216000802500C023916026F1802D51C03184248
:10022600037F43035A4A03395202F75A02915E008A
:100236000002047F30120A01AE0BAF0C7C007D0A6F
:100246001207B88E0B8F0C0203797F31120A01AEAA
:100256000BAF0C7C007D0A1207B88E0B8F0C050CB9
:10026600E50C7002050B0203797F32120A01AE0B10
:10027600AF0C7C007D0A1207B88E0B8F0C7402251A
:100286000CF50CE4350BF50B0203797F33120A01EA
:10029600AE0BAF0C7C007D0A1207B88E0B8F0C7468
:1002A60003250CF50CE4350BF50B0203797F3412AC
:1002B6000A01AE0BAF0C7C007D0A1207B88E0B8FBD
:1002C6000C7404250CF50CE4350BF50B0203797F51
:1002D60035120A01AE0BAF0C7C007D0A1207B88EF0
:1002E6000B8F0C7405250CF50CE4350BF50B02038E
:1002F600797F36120A01AE0BAF0C7C007D0A12071D
:10030600B88E0B8F0C7406250CF50CE4350BF50B2B
:1003160080617F37120A01AE0BAF0C7C007D0A129A
:1003260007B88E0B8F0C7407250CF50CE4350BF50E
:100336000B80407F38120A01AE0BAF0C7C007D0AA1
:100346001207B88E0B8F0C7408250CF50CE4350BD0
:10035600F50B801F7F39120A01AE0BAF0C7C007DB6
:100366000A1207B88E0B8F0C7409250CF50CE435B0
:100376000BF50B75130102020405140202047FCF6C
:100386001209F77F041209F7E51114605D14700372
:100396000204601470030204A724036003020552DA
:1003A600E50C250AF50EE50B3509F50DE50E450DAF
:1003B6006023AE0DAF0E7C007D0A1207CAED243015
:1003C600FF120A01AE0DAF0E7C007D0A12081F8EC9
:1003D6000D8F0E80D77F3D120A01E4F509F50AF567
:1003E6000BF50CF50DF50E02054ED3E50A950CE559
:1003F60009950B400EE50A950CF50EE509950BF5EA
:100406000D800DC3E50C950AF50EE50B9509F50D66
:10041600E50E450D6023AE0DAF0E7C007D0A12077A
:10042600CAED2430FF120A01AE0DAF0E7C007D0A24
:100436001207CA8E0D8F0E80D7C3E50A950CE50903
:10044600950B50057F2D120A017F3D120A01E4F536
:1004560009F50AF50BF50C02054EAC0BAD0CAE0911
:10046600AF0A1207B88023E50E450D6023AE0DAF27
:100476000E7C007D0A1207CAED2430FF120A01AE77
:100486000DAF0E7C007D0A1207CA8E0D8F0E80D727
:100496007F3D120A01E4F509F50AF50BF50C020594
:1004A6004EE4F50FF510AC09AD0A1206FEC004C005
:1004B60005C006C007AC0BAD0CE41206FEA804A9E5
:1004C60005AA06AB07D007D006D005D00412065CF5
:1004D600E4FBFA797A78441205531207378E0D8FAA
:1004E6000EE50E450D603D0510E5107002050FAED8
:1004F6000DAF0E7C007D0A1207CAED2430FF120AEA
:1005060001AE0DAF0E7C007D0A1207CA8E0D8F0E4E
:10051600E5106403450F70C97F2E120A01E4F50F3A
:10052600F51080BDAC0BAD0CAE09AF0A1207CAC3FD
:10053600EE940050057F30120A017F3D120A01E455
:0C054600F509F50AF50BF50CF511F5149C
:010552002286
:090A0B00D288D2A8D2AFD2B222E7
:1009C700120971120A0B120006E517B445FB7F01E5
:0509D7001209F780F198
:0300030002088967
:10088900C0E0C0D075D000C000C002C003C004C021
:0508990005C006C007C8
:10089E007512007513007FBC7E021209E030B203A0
:1008AE0002095E7BE87A0320B213D3EB9400EA943C
:1008BE0000400A1209DCEB1B70ED1A80EA20B2032D
:1008CE0002095E7A017BF430B213D3EB9400EA9402
:1008DE0000400A1209DCEB1B70ED1A80EAE4FD758C
:1008EE0008007A007B3C20B213D3EB9400EA94000C
:1008FE00400A1209DCEB1B70ED1A80EA7A017BF4D8
:10090E0030B220D3EB9400EA940040177F0A7E00A9
:10091E001209E00512EB1B70011AE512D3941E406A
:10092E00DF802D74152DF8C000E6C313D000F6E558
:10093E0012C39408400874152DF8E64480F675121B
:10094E00000508E508C3940840980DED6404708F07
:10095E00D007D006D005D004D003D002D000D0D01E
:03096E00D0E032A4
:10099D00C2A58F807F017E001209AED2A77F057E92
:0109AD000049
:1009AE00D3EF9400EE9400400F7DC77C01DCFEDD9A
:0809BE00FAEF1F70EB1E80E848
:0109C600220E
:0A09F700C2A7C2A612099DC2A722E2
:0A0A0100C2A7D2A612099DC2A722C7
:100971007F381209F71209AA7F381209F71209AA5A
:100981007F381209F71209AA7F0C1209F77F0612A4
:0C09910009F77F011209F77F800209F7C7
:10055300EC4D6011E8497017ED33EC3304600DE4A2
:10056300FCFFFEFD22E933E8330470F80207A3120F
:10057300076E58046009E4CC248150062850090210
:1005830007AD2840030207AAC0E0EB4A7044B980D4
:1005930006D0E0FB020799EF4E701CBD8008EBFF0D
:1005A300EAFEE9FD80EBE98DF0A4FEE5F002063CEE
:1005B300E9CDF9EAFEEBFFEF89F0A4FCE5F0CE8983
:1005C300F0A42EFFE435F0CD89F0A42DFEE435F040
:1005D3008067EF4E7005BD80D780C3EF8BF0A4AC6E
:1005E300F0EE8BF0A42CFCE435F0F8EF8AF0A42CA9
:1005F300E5F038FCE433CB8DF0A42CFCE5F03BF8BC
:10060300EE8AF0A42CFCE5F038F8E433CF89F0A4AB
:100613002CFCE5F038CF3400CE89F0A42FFFE5F0B1
:100623003EFEE433C98DF0A42EFEE5F039CD8AF009
:10063300A42FFFE5F03EFEE43DFD33D0E0FB500781
:100643000BBB000F0207ADEC2CFCEF33FFEE33FEC8
:06065300ED33FD020785F6
:100659000207ADEC5D046005E8590470030207A3C5
:1006690012076E580460F6EC4860F2EC7004FDFE67
:10067900FF22C860DB2481C85009C3986002500674
:100689000207AA9850CAF582E9294B4A7005AB823C
:1006990002079975F0007C1A7880C3EF9BEE9AEDFA
:1006A90099400DC3EF9BFFEE9AFEED99FDE842F0EC
:1006B900DC23ACF0D0E0FFD0E0FED0E0FDAB82203F
:1006C900E7101BEB60BAEC2CFCEF33FFEE33FEEDC9
:1006D90033FD020785E803F830E705C0F075F0003F
:1006E900EF2FFFEE33FEED33FD40B830E7C280AAAD
:1006F90075F020800E75F010800575F0087D007E7C
:10070900007F003392D530D503120855EC334010E1
:10071900EF33FFEE33FEED33FDEC33FCD5F0ED2284
:0E072900E5F0247EA2D513CC92E7CDCEFF22C0
:10073700EDD2E7CD33EC3392D524814006E4FFFEBA
:10074700FDFC22FCE4CFCECDCC24E0501174FF8019
:10075700EDC3CC13CCCD13CDCE13CECF13CF0470B6
:07076700F030D5DE02085559
:10076E00E9D2E7C933E833F892D5EDD2E7CD33ECD1
:07077E0033FC5002B2D5224A
:10078500EC30E7100FBF000C0EBE00080DBD0004D5
:100795000BEB6014A2D5EB13FCED92E7FD2274FF81
:1007A500FCFDFEFF22E480F8A2D574FF13FC7D80DA
:0307B500E480EFEE
:030000000209EB07
:0C09EB00787FE4F6D8FD7581180209C77A
:1007B800EF8DF0A4A8F0CF8CF0A428CE8DF0A42E55
:0207C800FE220F
:1007CA00BC000BBE0029EF8DF084FFADF022E4CC13
:1007DA00F875F008EF2FFFEE33FEEC33FCEE9DECDC
:1007EA00984005FCEE9DFE0FD5F0E9E4CEFD22ED22
:1007FA00F8F5F0EE8420D21CFEADF075F008EF2F6C
:10080A00FFED33FD4007985006D5F0F222C398FD5C
:05081A000FD5F0EA22F9
:10081F00C2D5EC30E709B2D5E4C39DFDE49CFCEEF4
:10082F0030E715B2D5E4C39FFFE49EFE1207CAC39B
:10083F00E49DFDE49CFC80031207CA30D507C3E496
:06084F009FFFE49EFE2263
:0E085500C3E49FFFE49EFEE49DFDE49CFC22B4
:10086300D083D082F8E4937012740193700DA3A324
:1008730093F8740193F5828883E473740293686038
:06088300EFA3A3A380DF38
:00000001FF
